:020000040800F2
:1000000000100020450000084100000841000008E1
:100010004100000841000008410000080000000005
:100020000000000000000000000000004100000887
:1000300041000008000000004100000841000008E5
:1000400000BFFDE710B472B64FF404140222144B43
:100050001449986940F0040098619B69C1F8104800
:10006000D1F8003823F4700323F00F0343F4001396
:1000700043F00803C1F800381346D1F8082802F00D
:100080000102934206D0002A14BF20234FF400132C
:10009000C1F810384FF4487300BF013BFCD1EBE7C7
:0800A0000010024000000140C5
:0400000508000045AA
:00000001FF
